:100000000C942A000C9434000C9434000C943400AA
:100010000C9434000C9434000C9434000C94340090
:100020000C9434000C9434000C9434000C94340080
:100030000C9434000C9434000C9434000C94340070
:100040000C9434000C9434000C9434000C94340060
:100050000C94340011241FBECFE5D4E0DEBFCDBF29
:100060000E9436000C94AF000C9400008FB5826A99
:100070008FBD8EB589618EBD87E893E197BD86BD42
:1000800081B3806381BB1BBC1ABC2FE33DE043E01E
:10009000215030404040E1F700C0000089E393E088
:1000A0009BBD8ABD5FE36DE073E0515060407040DE
:1000B000E1F700C000002FEE34E03BBD2ABDEFE3C6
:1000C0004DE053E0E15040405040E1F700C00000F7
:1000D00044EA56E05BBD4ABD6FE37DE0E3E061507A
:1000E0007040E040E1F700C0000066E678E07BBDCC
:1000F0006ABD6FE37DE0E3E061507040E040E1F70E
:1001000000C000005BBD4ABD4FE35DE063E04150CD
:1001100050406040E1F700C000003BBD2ABD7FE3D6
:10012000EDE023E07150E0402040E1F700C0000026
:100130009BBD8ABD3FE34DE053E03150404050400D
:10014000E1F700C000001BBC1ABC6FE37DE083E058
:10015000615070408040E1F700C0000094CFF894F7
:02016000FFCFCF
:00000001FF
