:100000000C942A000C9434000C9434000C943400AA
:100010000C9434000C9434000C9434000C94340090
:100020000C9434000C9434000C9434000C94340080
:100030000C9434000C9434000C9434000C94340070
:100040000C9434000C9434000C9434000C94340060
:100050000C94340011241FBECFE5D4E0DEBFCDBF29
:100060000E9436000C94A6000C9400008FB5826AA2
:100070008FBD8EB589618EBD8FE19EE497BD86BD33
:1000800081B3806381BB1BBC1ABC2FE33DE043E01E
:10009000215030404040E1F700C0000088E592E088
:1000A0009BBD8ABD5FE36DE083E0515060408040BE
:1000B000E1F700C0000086EB93E09BBD8ABD2FE313
:1000C0003DE043E0215030404040E1F700C00000F7
:1000D00021E935E03BBD2ABD5FE36DE043E05150CF
:1000E00060404040E1F700C000004CE657E05BBDD7
:1000F0004ABD5FE36DE043E0515060404040E1F7AE
:1001000000C000003BBD2ABD5FE36DE023E051501D
:1001100060402040E1F700C000009BBD8ABD3FE386
:100120004DE053E0315040405040E1F700C0000046
:100130008AE892E09BBD8ABD6FE38DE093E0615059
:1001400080409040E1F700C000009DCFF894FFCFC1
:00000001FF
